{
  "_format": "hh-sol-artifact-1",
  "contractName": "RoboPunksNFT",
  "sourceName": "contracts/RoboPunksNft.sol",
  "abi": [
    {
      "inputs": [],
      "stateMutability": "payable",
      "type": "constructor"
    },
    {
      "anonymous": false,
      "inputs": [
        {
          "indexed": true,
          "internalType": "address",
          "name": "owner",
          "type": "address"
        },
        {
          "indexed": true,
          "internalType": "address",
          "name": "approved",
          "type": "address"
        },
        {
          "indexed": true,
          "internalType": "uint256",
          "name": "tokenId",
          "type": "uint256"
        }
      ],
      "name": "Approval",
      "type": "event"
    },
    {
      "anonymous": false,
      "inputs": [
        {
          "indexed": true,
          "internalType": "address",
          "name": "owner",
          "type": "address"
        },
        {
          "indexed": true,
          "internalType": "address",
          "name": "operator",
          "type": "address"
        },
        {
          "indexed": false,
          "internalType": "bool",
          "name": "approved",
          "type": "bool"
        }
      ],
      "name": "ApprovalForAll",
      "type": "event"
    },
    {
      "anonymous": false,
      "inputs": [
        {
          "indexed": true,
          "internalType": "address",
          "name": "previousOwner",
          "type": "address"
        },
        {
          "indexed": true,
          "internalType": "address",
          "name": "newOwner",
          "type": "address"
        }
      ],
      "name": "OwnershipTransferred",
      "type": "event"
    },
    {
      "anonymous": false,
      "inputs": [
        {
          "indexed": true,
          "internalType": "address",
          "name": "from",
          "type": "address"
        },
        {
          "indexed": true,
          "internalType": "address",
          "name": "to",
          "type": "address"
        },
        {
          "indexed": true,
          "internalType": "uint256",
          "name": "tokenId",
          "type": "uint256"
        }
      ],
      "name": "Transfer",
      "type": "event"
    },
    {
      "inputs": [
        {
          "internalType": "address",
          "name": "",
          "type": "address"
        },
        {
          "internalType": "uint256",
          "name": "",
          "type": "uint256"
        }
      ],
      "name": "accountToMetadata",
      "outputs": [
        {
          "internalType": "string",
          "name": "",
          "type": "string"
        }
      ],
      "stateMutability": "view",
      "type": "function"
    },
    {
      "inputs": [
        {
          "internalType": "address",
          "name": "to",
          "type": "address"
        },
        {
          "internalType": "uint256",
          "name": "tokenId",
          "type": "uint256"
        }
      ],
      "name": "approve",
      "outputs": [],
      "stateMutability": "nonpayable",
      "type": "function"
    },
    {
      "inputs": [
        {
          "internalType": "address",
          "name": "owner",
          "type": "address"
        }
      ],
      "name": "balanceOf",
      "outputs": [
        {
          "internalType": "uint256",
          "name": "",
          "type": "uint256"
        }
      ],
      "stateMutability": "view",
      "type": "function"
    },
    {
      "inputs": [
        {
          "internalType": "address",
          "name": "account",
          "type": "address"
        }
      ],
      "name": "getAccountToMetadata",
      "outputs": [
        {
          "internalType": "string[]",
          "name": "",
          "type": "string[]"
        }
      ],
      "stateMutability": "view",
      "type": "function"
    },
    {
      "inputs": [
        {
          "internalType": "uint256",
          "name": "tokenId",
          "type": "uint256"
        }
      ],
      "name": "getApproved",
      "outputs": [
        {
          "internalType": "address",
          "name": "",
          "type": "address"
        }
      ],
      "stateMutability": "view",
      "type": "function"
    },
    {
      "inputs": [
        {
          "internalType": "address",
          "name": "owner",
          "type": "address"
        },
        {
          "internalType": "address",
          "name": "operator",
          "type": "address"
        }
      ],
      "name": "isApprovedForAll",
      "outputs": [
        {
          "internalType": "bool",
          "name": "",
          "type": "bool"
        }
      ],
      "stateMutability": "view",
      "type": "function"
    },
    {
      "inputs": [],
      "name": "isPublicMintEnabled",
      "outputs": [
        {
          "internalType": "bool",
          "name": "",
          "type": "bool"
        }
      ],
      "stateMutability": "view",
      "type": "function"
    },
    {
      "inputs": [],
      "name": "maxPerWallet",
      "outputs": [
        {
          "internalType": "uint256",
          "name": "",
          "type": "uint256"
        }
      ],
      "stateMutability": "view",
      "type": "function"
    },
    {
      "inputs": [],
      "name": "maxSupply",
      "outputs": [
        {
          "internalType": "uint256",
          "name": "",
          "type": "uint256"
        }
      ],
      "stateMutability": "view",
      "type": "function"
    },
    {
      "inputs": [
        {
          "internalType": "address",
          "name": "to",
          "type": "address"
        },
        {
          "internalType": "string",
          "name": "metadata",
          "type": "string"
        }
      ],
      "name": "mint",
      "outputs": [],
      "stateMutability": "nonpayable",
      "type": "function"
    },
    {
      "inputs": [],
      "name": "mintPrice",
      "outputs": [
        {
          "internalType": "uint256",
          "name": "",
          "type": "uint256"
        }
      ],
      "stateMutability": "view",
      "type": "function"
    },
    {
      "inputs": [],
      "name": "name",
      "outputs": [
        {
          "internalType": "string",
          "name": "",
          "type": "string"
        }
      ],
      "stateMutability": "view",
      "type": "function"
    },
    {
      "inputs": [],
      "name": "owner",
      "outputs": [
        {
          "internalType": "address",
          "name": "",
          "type": "address"
        }
      ],
      "stateMutability": "view",
      "type": "function"
    },
    {
      "inputs": [
        {
          "internalType": "uint256",
          "name": "tokenId",
          "type": "uint256"
        }
      ],
      "name": "ownerOf",
      "outputs": [
        {
          "internalType": "address",
          "name": "",
          "type": "address"
        }
      ],
      "stateMutability": "view",
      "type": "function"
    },
    {
      "inputs": [],
      "name": "renounceOwnership",
      "outputs": [],
      "stateMutability": "nonpayable",
      "type": "function"
    },
    {
      "inputs": [
        {
          "internalType": "address",
          "name": "from",
          "type": "address"
        },
        {
          "internalType": "address",
          "name": "to",
          "type": "address"
        },
        {
          "internalType": "uint256",
          "name": "tokenId",
          "type": "uint256"
        }
      ],
      "name": "safeTransferFrom",
      "outputs": [],
      "stateMutability": "nonpayable",
      "type": "function"
    },
    {
      "inputs": [
        {
          "internalType": "address",
          "name": "from",
          "type": "address"
        },
        {
          "internalType": "address",
          "name": "to",
          "type": "address"
        },
        {
          "internalType": "uint256",
          "name": "tokenId",
          "type": "uint256"
        },
        {
          "internalType": "bytes",
          "name": "data",
          "type": "bytes"
        }
      ],
      "name": "safeTransferFrom",
      "outputs": [],
      "stateMutability": "nonpayable",
      "type": "function"
    },
    {
      "inputs": [
        {
          "internalType": "address",
          "name": "account",
          "type": "address"
        },
        {
          "internalType": "string",
          "name": "metadata",
          "type": "string"
        }
      ],
      "name": "setAccountToMetadata",
      "outputs": [],
      "stateMutability": "nonpayable",
      "type": "function"
    },
    {
      "inputs": [
        {
          "internalType": "address",
          "name": "operator",
          "type": "address"
        },
        {
          "internalType": "bool",
          "name": "approved",
          "type": "bool"
        }
      ],
      "name": "setApprovalForAll",
      "outputs": [],
      "stateMutability": "nonpayable",
      "type": "function"
    },
    {
      "inputs": [
        {
          "internalType": "string",
          "name": "baseTokenUri_",
          "type": "string"
        }
      ],
      "name": "setBaseTokenUri",
      "outputs": [],
      "stateMutability": "nonpayable",
      "type": "function"
    },
    {
      "inputs": [
        {
          "internalType": "bool",
          "name": "isPublicMintEnabled_",
          "type": "bool"
        }
      ],
      "name": "setIsPublicMintEnabled",
      "outputs": [],
      "stateMutability": "nonpayable",
      "type": "function"
    },
    {
      "inputs": [
        {
          "internalType": "bytes4",
          "name": "interfaceId",
          "type": "bytes4"
        }
      ],
      "name": "supportsInterface",
      "outputs": [
        {
          "internalType": "bool",
          "name": "",
          "type": "bool"
        }
      ],
      "stateMutability": "view",
      "type": "function"
    },
    {
      "inputs": [],
      "name": "symbol",
      "outputs": [
        {
          "internalType": "string",
          "name": "",
          "type": "string"
        }
      ],
      "stateMutability": "view",
      "type": "function"
    },
    {
      "inputs": [
        {
          "internalType": "uint256",
          "name": "tokenId_",
          "type": "uint256"
        }
      ],
      "name": "tokenURI",
      "outputs": [
        {
          "internalType": "string",
          "name": "",
          "type": "string"
        }
      ],
      "stateMutability": "view",
      "type": "function"
    },
    {
      "inputs": [],
      "name": "totalSupply",
      "outputs": [
        {
          "internalType": "uint256",
          "name": "",
          "type": "uint256"
        }
      ],
      "stateMutability": "view",
      "type": "function"
    },
    {
      "inputs": [
        {
          "internalType": "address",
          "name": "from",
          "type": "address"
        },
        {
          "internalType": "address",
          "name": "to",
          "type": "address"
        },
        {
          "internalType": "uint256",
          "name": "tokenId",
          "type": "uint256"
        }
      ],
      "name": "transferFrom",
      "outputs": [],
      "stateMutability": "nonpayable",
      "type": "function"
    },
    {
      "inputs": [
        {
          "internalType": "address",
          "name": "newOwner",
          "type": "address"
        }
      ],
      "name": "transferOwnership",
      "outputs": [],
      "stateMutability": "nonpayable",
      "type": "function"
    },
    {
      "inputs": [
        {
          "internalType": "address",
          "name": "",
          "type": "address"
        }
      ],
      "name": "walletMints",
      "outputs": [
        {
          "internalType": "uint256",
          "name": "",
          "type": "uint256"
        }
      ],
      "stateMutability": "view",
      "type": "function"
    },
    {
      "inputs": [],
      "name": "withdraw",
      "outputs": [],
      "stateMutability": "nonpayable",
      "type": "function"
    },
    {
      "inputs": [],
      "name": "withdrawWallet",
      "outputs": [
        {
          "internalType": "address payable",
          "name": "",
          "type": "address"
        }
      ],
      "stateMutability": "view",
      "type": "function"
    }
  ],
  "bytecode": "0x60806040526040518060400160405280600981526020017f526f626f50756e6b7300000000000000000000000000000000000000000000008152506040518060400160405280600281526020017f5250000000000000000000000000000000000000000000000000000000000000815250816000908051906020019062000088929190620001b1565b508060019080519060200190620000a1929190620001b1565b505050620000c4620000b8620000e360201b60201c565b620000eb60201b60201c565b60006008819055506103e86009819055506003600a81905550620002c6565b600033905090565b6000600660009054906101000a900473ffffffffffffffffffffffffffffffffffffffff16905081600660006101000a81548173ffffffffffffffffffffffffffffffffffffffff021916908373ffffffffffffffffffffffffffffffffffffffff1602179055508173ffffffffffffffffffffffffffffffffffffffff168173ffffffffffffffffffffffffffffffffffffffff167f8be0079c531659141344cd1fd0a4f28419497f9722a3daafe3b4186f6b6457e060405160405180910390a35050565b828054620001bf9062000290565b90600052602060002090601f016020900481019282620001e357600085556200022f565b82601f10620001fe57805160ff19168380011785556200022f565b828001600101855582156200022f579182015b828111156200022e57825182559160200191906001019062000211565b5b5090506200023e919062000242565b5090565b5b808211156200025d57600081600090555060010162000243565b5090565b7f4e487b7100000000000000000000000000000000000000000000000000000000600052602260045260246000fd5b60006002820490506001821680620002a957607f821691505b60208210811415620002c057620002bf62000261565b5b50919050565b61371080620002d66000396000f3fe608060405234801561001057600080fd5b50600436106101da5760003560e01c8063715018a611610104578063b88d4fde116100a2578063d5abeb0111610071578063d5abeb011461052f578063e985e9c51461054d578063f0293fd31461057d578063f2fde38b146105ad576101da565b8063b88d4fde14610497578063c87b56dd146104b3578063cafc37c0146104e3578063d0def52114610513576101da565b80638da5cb5b116100de5780638da5cb5b1461042357806395652cfa1461044157806395d89b411461045d578063a22cb4651461047b576101da565b8063715018a6146103df5780637eb3083b146103e957806385d178f414610405576101da565b806323b872dd1161017c5780636352211e1161014b5780636352211e146103315780636817c76c146103615780636a4c19c31461037f57806370a08231146103af576101da565b806323b872dd146102d15780633ccfd60b146102ed57806342842e0e146102f7578063453c231014610313576101da565b8063081812fc116101b8578063081812fc1461024b578063095ea7b31461027b57806318160ddd146102975780632373ac22146102b5576101da565b80630116bc2d146101df57806301ffc9a7146101fd57806306fdde031461022d575b600080fd5b6101e76105c9565b6040516101f491906120fe565b60405180910390f35b61021760048036038101906102129190612185565b6105dc565b60405161022491906120fe565b60405180910390f35b6102356106be565b604051610242919061224b565b60405180910390f35b610265600480360381019061026091906122a3565b610750565b6040516102729190612311565b60405180910390f35b61029560048036038101906102909190612358565b610796565b005b61029f6108ae565b6040516102ac91906123a7565b60405180910390f35b6102cf60048036038101906102ca91906123ee565b6108b4565b005b6102eb60048036038101906102e6919061241b565b6108d9565b005b6102f5610939565b005b610311600480360381019061030c919061241b565b610a12565b005b61031b610a32565b60405161032891906123a7565b60405180910390f35b61034b600480360381019061034691906122a3565b610a38565b6040516103589190612311565b60405180910390f35b610369610aea565b60405161037691906123a7565b60405180910390f35b6103996004803603810190610394919061246e565b610af0565b6040516103a691906125a7565b60405180910390f35b6103c960048036038101906103c4919061246e565b610c08565b6040516103d691906123a7565b60405180910390f35b6103e7610cc0565b005b61040360048036038101906103fe91906126fe565b610cd4565b005b61040d610d51565b60405161041a919061277b565b60405180910390f35b61042b610d77565b6040516104389190612311565b60405180910390f35b61045b600480360381019061045691906127f6565b610da1565b005b610465610dbf565b604051610472919061224b565b60405180910390f35b61049560048036038101906104909190612843565b610e51565b005b6104b160048036038101906104ac9190612924565b610e67565b005b6104cd60048036038101906104c891906122a3565b610ec9565b6040516104da919061224b565b60405180910390f35b6104fd60048036038101906104f89190612358565b610f45565b60405161050a919061224b565b60405180910390f35b61052d600480360381019061052891906126fe565b610ffe565b005b610537611121565b60405161054491906123a7565b60405180910390f35b610567600480360381019061056291906129a7565b611127565b60405161057491906120fe565b60405180910390f35b6105976004803603810190610592919061246e565b6111bb565b6040516105a491906123a7565b60405180910390f35b6105c760048036038101906105c2919061246e565b6111d3565b005b600b60009054906101000a900460ff1681565b60007f80ac58cd000000000000000000000000000000000000000000000000000000007bffffffffffffffffffffffffffffffffffffffffffffffffffffffff1916827bffffffffffffffffffffffffffffffffffffffffffffffffffffffff191614806106a757507f5b5e139f000000000000000000000000000000000000000000000000000000007bffffffffffffffffffffffffffffffffffffffffffffffffffffffff1916827bffffffffffffffffffffffffffffffffffffffffffffffffffffffff1916145b806106b757506106b682611257565b5b9050919050565b6060600080546106cd90612a16565b80601f01602080910402602001604051908101604052809291908181526020018280546106f990612a16565b80156107465780601f1061071b57610100808354040283529160200191610746565b820191906000526020600020905b81548152906001019060200180831161072957829003601f168201915b5050505050905090565b600061075b826112c1565b6004600083815260200190815260200160002060009054906101000a900473ffffffffffffffffffffffffffffffffffffffff169050919050565b60006107a182610a38565b90508073ffffffffffffffffffffffffffffffffffffffff168373ffffffffffffffffffffffffffffffffffffffff161415610812576040517f08c379a000000000000000000000000000000000000000000000000000000000815260040161080990612aba565b60405180910390fd5b8073ffffffffffffffffffffffffffffffffffffffff1661083161130c565b73ffffffffffffffffffffffffffffffffffffffff161480610860575061085f8161085a61130c565b611127565b5b61089f576040517f08c379a000000000000000000000000000000000000000000000000000000000815260040161089690612b4c565b60405180910390fd5b6108a98383611314565b505050565b60085481565b6108bc6113cd565b80600b60006101000a81548160ff02191690831515021790555050565b6108ea6108e461130c565b8261144b565b610929576040517f08c379a000000000000000000000000000000000000000000000000000000000815260040161092090612bde565b60405180910390fd5b6109348383836114e0565b505050565b6109416113cd565b6000600d60009054906101000a900473ffffffffffffffffffffffffffffffffffffffff1673ffffffffffffffffffffffffffffffffffffffff164760405161098990612c2f565b60006040518083038185875af1925050503d80600081146109c6576040519150601f19603f3d011682016040523d82523d6000602084013e6109cb565b606091505b5050905080610a0f576040517f08c379a0000000000000000000000000000000000000000000000000000000008152600401610a0690612c90565b60405180910390fd5b50565b610a2d83838360405180602001604052806000815250610e67565b505050565b600a5481565b6000806002600084815260200190815260200160002060009054906101000a900473ffffffffffffffffffffffffffffffffffffffff169050600073ffffffffffffffffffffffffffffffffffffffff168173ffffffffffffffffffffffffffffffffffffffff161415610ae1576040517f08c379a0000000000000000000000000000000000000000000000000000000008152600401610ad890612cfc565b60405180910390fd5b80915050919050565b60075481565b6060600f60008373ffffffffffffffffffffffffffffffffffffffff1673ffffffffffffffffffffffffffffffffffffffff168152602001908152602001600020805480602002602001604051908101604052809291908181526020016000905b82821015610bfd578382906000526020600020018054610b7090612a16565b80601f0160208091040260200160405190810160405280929190818152602001828054610b9c90612a16565b8015610be95780601f10610bbe57610100808354040283529160200191610be9565b820191906000526020600020905b815481529060010190602001808311610bcc57829003601f168201915b505050505081526020019060010190610b51565b505050509050919050565b60008073ffffffffffffffffffffffffffffffffffffffff168273ffffffffffffffffffffffffffffffffffffffff161415610c79576040517f08c379a0000000000000000000000000000000000000000000000000000000008152600401610c7090612d8e565b60405180910390fd5b600360008373ffffffffffffffffffffffffffffffffffffffff1673ffffffffffffffffffffffffffffffffffffffff168152602001908152602001600020549050919050565b610cc86113cd565b610cd26000611747565b565b600f60008373ffffffffffffffffffffffffffffffffffffffff1673ffffffffffffffffffffffffffffffffffffffff16815260200190815260200160002081908060018154018082558091505060019003906000526020600020016000909190919091509080519060200190610d4c929190611fba565b505050565b600d60009054906101000a900473ffffffffffffffffffffffffffffffffffffffff1681565b6000600660009054906101000a900473ffffffffffffffffffffffffffffffffffffffff16905090565b610da96113cd565b8181600c9190610dba929190612040565b505050565b606060018054610dce90612a16565b80601f0160208091040260200160405190810160405280929190818152602001828054610dfa90612a16565b8015610e475780601f10610e1c57610100808354040283529160200191610e47565b820191906000526020600020905b815481529060010190602001808311610e2a57829003601f168201915b5050505050905090565b610e63610e5c61130c565b838361180d565b5050565b610e78610e7261130c565b8361144b565b610eb7576040517f08c379a0000000000000000000000000000000000000000000000000000000008152600401610eae90612bde565b60405180910390fd5b610ec38484848461197a565b50505050565b6060610ed4826119d6565b610f13576040517f08c379a0000000000000000000000000000000000000000000000000000000008152600401610f0a90612dfa565b60405180910390fd5b600c610f1e83611a42565b604051602001610f2f929190612f36565b6040516020818303038152906040529050919050565b600f6020528160005260406000208181548110610f6157600080fd5b90600052602060002001600091509150508054610f7d90612a16565b80601f0160208091040260200160405190810160405280929190818152602001828054610fa990612a16565b8015610ff65780601f10610fcb57610100808354040283529160200191610ff6565b820191906000526020600020905b815481529060010190602001808311610fd957829003601f168201915b505050505081565b600b60009054906101000a900460ff1661104d576040517f08c379a000000000000000000000000000000000000000000000000000000000815260040161104490612fb1565b60405180910390fd5b600a546001600e60008573ffffffffffffffffffffffffffffffffffffffff1673ffffffffffffffffffffffffffffffffffffffff1681526020019081526020016000205461109c9190613000565b11156110dd576040517f08c379a00000000000000000000000000000000000000000000000000000000081526004016110d4906130a2565b60405180910390fd5b6110e78282610cd4565b600060016008546110f89190613000565b90506008600081548092919061110d906130c2565b919050555061111c8382611ba3565b505050565b60095481565b6000600560008473ffffffffffffffffffffffffffffffffffffffff1673ffffffffffffffffffffffffffffffffffffffff16815260200190815260200160002060008373ffffffffffffffffffffffffffffffffffffffff1673ffffffffffffffffffffffffffffffffffffffff16815260200190815260200160002060009054906101000a900460ff16905092915050565b600e6020528060005260406000206000915090505481565b6111db6113cd565b600073ffffffffffffffffffffffffffffffffffffffff168173ffffffffffffffffffffffffffffffffffffffff16141561124b576040517f08c379a00000000000000000000000000000000000000000000000000000000081526004016112429061317d565b60405180910390fd5b61125481611747565b50565b60007f01ffc9a7000000000000000000000000000000000000000000000000000000007bffffffffffffffffffffffffffffffffffffffffffffffffffffffff1916827bffffffffffffffffffffffffffffffffffffffffffffffffffffffff1916149050919050565b6112ca816119d6565b611309576040517f08c379a000000000000000000000000000000000000000000000000000000000815260040161130090612cfc565b60405180910390fd5b50565b600033905090565b816004600083815260200190815260200160002060006101000a81548173ffffffffffffffffffffffffffffffffffffffff021916908373ffffffffffffffffffffffffffffffffffffffff160217905550808273ffffffffffffffffffffffffffffffffffffffff1661138783610a38565b73ffffffffffffffffffffffffffffffffffffffff167f8c5be1e5ebec7d5bd14f71427d1e84f3dd0314c0f7b2291e5b200ac8c7c3b92560405160405180910390a45050565b6113d561130c565b73ffffffffffffffffffffffffffffffffffffffff166113f3610d77565b73ffffffffffffffffffffffffffffffffffffffff1614611449576040517f08c379a0000000000000000000000000000000000000000000000000000000008152600401611440906131e9565b60405180910390fd5b565b60008061145783610a38565b90508073ffffffffffffffffffffffffffffffffffffffff168473ffffffffffffffffffffffffffffffffffffffff16148061149957506114988185611127565b5b806114d757508373ffffffffffffffffffffffffffffffffffffffff166114bf84610750565b73ffffffffffffffffffffffffffffffffffffffff16145b91505092915050565b8273ffffffffffffffffffffffffffffffffffffffff1661150082610a38565b73ffffffffffffffffffffffffffffffffffffffff1614611556576040517f08c379a000000000000000000000000000000000000000000000000000000000815260040161154d9061327b565b60405180910390fd5b600073ffffffffffffffffffffffffffffffffffffffff168273ffffffffffffffffffffffffffffffffffffffff1614156115c6576040517f08c379a00000000000000000000000000000000000000000000000000000000081526004016115bd9061330d565b60405180910390fd5b6115d1838383611bc1565b6115dc600082611314565b6001600360008573ffffffffffffffffffffffffffffffffffffffff1673ffffffffffffffffffffffffffffffffffffffff168152602001908152602001600020600082825461162c919061332d565b925050819055506001600360008473ffffffffffffffffffffffffffffffffffffffff1673ffffffffffffffffffffffffffffffffffffffff16815260200190815260200160002060008282546116839190613000565b92505081905550816002600083815260200190815260200160002060006101000a81548173ffffffffffffffffffffffffffffffffffffffff021916908373ffffffffffffffffffffffffffffffffffffffff160217905550808273ffffffffffffffffffffffffffffffffffffffff168473ffffffffffffffffffffffffffffffffffffffff167fddf252ad1be2c89b69c2b068fc378daa952ba7f163c4a11628f55a4df523b3ef60405160405180910390a4611742838383611bc6565b505050565b6000600660009054906101000a900473ffffffffffffffffffffffffffffffffffffffff16905081600660006101000a81548173ffffffffffffffffffffffffffffffffffffffff021916908373ffffffffffffffffffffffffffffffffffffffff1602179055508173ffffffffffffffffffffffffffffffffffffffff168173ffffffffffffffffffffffffffffffffffffffff167f8be0079c531659141344cd1fd0a4f28419497f9722a3daafe3b4186f6b6457e060405160405180910390a35050565b8173ffffffffffffffffffffffffffffffffffffffff168373ffffffffffffffffffffffffffffffffffffffff16141561187c576040517f08c379a0000000000000000000000000000000000000000000000000000000008152600401611873906133ad565b60405180910390fd5b80600560008573ffffffffffffffffffffffffffffffffffffffff1673ffffffffffffffffffffffffffffffffffffffff16815260200190815260200160002060008473ffffffffffffffffffffffffffffffffffffffff1673ffffffffffffffffffffffffffffffffffffffff16815260200190815260200160002060006101000a81548160ff0219169083151502179055508173ffffffffffffffffffffffffffffffffffffffff168373ffffffffffffffffffffffffffffffffffffffff167f17307eab39ab6107e8899845ad3d59bd9653f200f220920489ca2b5937696c318360405161196d91906120fe565b60405180910390a3505050565b6119858484846114e0565b61199184848484611bcb565b6119d0576040517f08c379a00000000000000000000000000000000000000000000000000000000081526004016119c79061343f565b60405180910390fd5b50505050565b60008073ffffffffffffffffffffffffffffffffffffffff166002600084815260200190815260200160002060009054906101000a900473ffffffffffffffffffffffffffffffffffffffff1673ffffffffffffffffffffffffffffffffffffffff1614159050919050565b60606000821415611a8a576040518060400160405280600181526020017f30000000000000000000000000000000000000000000000000000000000000008152509050611b9e565b600082905060005b60008214611abc578080611aa5906130c2565b915050600a82611ab5919061348e565b9150611a92565b60008167ffffffffffffffff811115611ad857611ad76125d3565b5b6040519080825280601f01601f191660200182016040528015611b0a5781602001600182028036833780820191505090505b5090505b60008514611b9757600182611b23919061332d565b9150600a85611b3291906134bf565b6030611b3e9190613000565b60f81b818381518110611b5457611b536134f0565b5b60200101907effffffffffffffffffffffffffffffffffffffffffffffffffffffffffffff1916908160001a905350600a85611b90919061348e565b9450611b0e565b8093505050505b919050565b611bbd828260405180602001604052806000815250611d62565b5050565b505050565b505050565b6000611bec8473ffffffffffffffffffffffffffffffffffffffff16611dbd565b15611d55578373ffffffffffffffffffffffffffffffffffffffff1663150b7a02611c1561130c565b8786866040518563ffffffff1660e01b8152600401611c379493929190613574565b602060405180830381600087803b158015611c5157600080fd5b505af1925050508015611c8257506040513d601f19601f82011682018060405250810190611c7f91906135d5565b60015b611d05573d8060008114611cb2576040519150601f19603f3d011682016040523d82523d6000602084013e611cb7565b606091505b50600081511415611cfd576040517f08c379a0000000000000000000000000000000000000000000000000000000008152600401611cf49061343f565b60405180910390fd5b805181602001fd5b63150b7a0260e01b7bffffffffffffffffffffffffffffffffffffffffffffffffffffffff1916817bffffffffffffffffffffffffffffffffffffffffffffffffffffffff191614915050611d5a565b600190505b949350505050565b611d6c8383611de0565b611d796000848484611bcb565b611db8576040517f08c379a0000000000000000000000000000000000000000000000000000000008152600401611daf9061343f565b60405180910390fd5b505050565b6000808273ffffffffffffffffffffffffffffffffffffffff163b119050919050565b600073ffffffffffffffffffffffffffffffffffffffff168273ffffffffffffffffffffffffffffffffffffffff161415611e50576040517f08c379a0000000000000000000000000000000000000000000000000000000008152600401611e479061364e565b60405180910390fd5b611e59816119d6565b15611e99576040517f08c379a0000000000000000000000000000000000000000000000000000000008152600401611e90906136ba565b60405180910390fd5b611ea560008383611bc1565b6001600360008473ffffffffffffffffffffffffffffffffffffffff1673ffffffffffffffffffffffffffffffffffffffff1681526020019081526020016000206000828254611ef59190613000565b92505081905550816002600083815260200190815260200160002060006101000a81548173ffffffffffffffffffffffffffffffffffffffff021916908373ffffffffffffffffffffffffffffffffffffffff160217905550808273ffffffffffffffffffffffffffffffffffffffff16600073ffffffffffffffffffffffffffffffffffffffff167fddf252ad1be2c89b69c2b068fc378daa952ba7f163c4a11628f55a4df523b3ef60405160405180910390a4611fb660008383611bc6565b5050565b828054611fc690612a16565b90600052602060002090601f016020900481019282611fe8576000855561202f565b82601f1061200157805160ff191683800117855561202f565b8280016001018555821561202f579182015b8281111561202e578251825591602001919060010190612013565b5b50905061203c91906120c6565b5090565b82805461204c90612a16565b90600052602060002090601f01602090048101928261206e57600085556120b5565b82601f1061208757803560ff19168380011785556120b5565b828001600101855582156120b5579182015b828111156120b4578235825591602001919060010190612099565b5b5090506120c291906120c6565b5090565b5b808211156120df5760008160009055506001016120c7565b5090565b60008115159050919050565b6120f8816120e3565b82525050565b600060208201905061211360008301846120ef565b92915050565b6000604051905090565b600080fd5b600080fd5b60007fffffffff0000000000000000000000000000000000000000000000000000000082169050919050565b6121628161212d565b811461216d57600080fd5b50565b60008135905061217f81612159565b92915050565b60006020828403121561219b5761219a612123565b5b60006121a984828501612170565b91505092915050565b600081519050919050565b600082825260208201905092915050565b60005b838110156121ec5780820151818401526020810190506121d1565b838111156121fb576000848401525b50505050565b6000601f19601f8301169050919050565b600061221d826121b2565b61222781856121bd565b93506122378185602086016121ce565b61224081612201565b840191505092915050565b600060208201905081810360008301526122658184612212565b905092915050565b6000819050919050565b6122808161226d565b811461228b57600080fd5b50565b60008135905061229d81612277565b92915050565b6000602082840312156122b9576122b8612123565b5b60006122c78482850161228e565b91505092915050565b600073ffffffffffffffffffffffffffffffffffffffff82169050919050565b60006122fb826122d0565b9050919050565b61230b816122f0565b82525050565b60006020820190506123266000830184612302565b92915050565b612335816122f0565b811461234057600080fd5b50565b6000813590506123528161232c565b92915050565b6000806040838503121561236f5761236e612123565b5b600061237d85828601612343565b925050602061238e8582860161228e565b9150509250929050565b6123a18161226d565b82525050565b60006020820190506123bc6000830184612398565b92915050565b6123cb816120e3565b81146123d657600080fd5b50565b6000813590506123e8816123c2565b92915050565b60006020828403121561240457612403612123565b5b6000612412848285016123d9565b91505092915050565b60008060006060848603121561243457612433612123565b5b600061244286828701612343565b935050602061245386828701612343565b92505060406124648682870161228e565b9150509250925092565b60006020828403121561248457612483612123565b5b600061249284828501612343565b91505092915050565b600081519050919050565b600082825260208201905092915050565b6000819050602082019050919050565b600082825260208201905092915050565b60006124e3826121b2565b6124ed81856124c7565b93506124fd8185602086016121ce565b61250681612201565b840191505092915050565b600061251d83836124d8565b905092915050565b6000602082019050919050565b600061253d8261249b565b61254781856124a6565b935083602082028501612559856124b7565b8060005b8581101561259557848403895281516125768582612511565b945061258183612525565b925060208a0199505060018101905061255d565b50829750879550505050505092915050565b600060208201905081810360008301526125c18184612532565b905092915050565b600080fd5b600080fd5b7f4e487b7100000000000000000000000000000000000000000000000000000000600052604160045260246000fd5b61260b82612201565b810181811067ffffffffffffffff8211171561262a576126296125d3565b5b80604052505050565b600061263d612119565b90506126498282612602565b919050565b600067ffffffffffffffff821115612669576126686125d3565b5b61267282612201565b9050602081019050919050565b82818337600083830152505050565b60006126a161269c8461264e565b612633565b9050828152602081018484840111156126bd576126bc6125ce565b5b6126c884828561267f565b509392505050565b600082601f8301126126e5576126e46125c9565b5b81356126f584826020860161268e565b91505092915050565b6000806040838503121561271557612714612123565b5b600061272385828601612343565b925050602083013567ffffffffffffffff81111561274457612743612128565b5b612750858286016126d0565b9150509250929050565b6000612765826122d0565b9050919050565b6127758161275a565b82525050565b6000602082019050612790600083018461276c565b92915050565b600080fd5b600080fd5b60008083601f8401126127b6576127b56125c9565b5b8235905067ffffffffffffffff8111156127d3576127d2612796565b5b6020830191508360018202830111156127ef576127ee61279b565b5b9250929050565b6000806020838503121561280d5761280c612123565b5b600083013567ffffffffffffffff81111561282b5761282a612128565b5b612837858286016127a0565b92509250509250929050565b6000806040838503121561285a57612859612123565b5b600061286885828601612343565b9250506020612879858286016123d9565b9150509250929050565b600067ffffffffffffffff82111561289e5761289d6125d3565b5b6128a782612201565b9050602081019050919050565b60006128c76128c284612883565b612633565b9050828152602081018484840111156128e3576128e26125ce565b5b6128ee84828561267f565b509392505050565b600082601f83011261290b5761290a6125c9565b5b813561291b8482602086016128b4565b91505092915050565b6000806000806080858703121561293e5761293d612123565b5b600061294c87828801612343565b945050602061295d87828801612343565b935050604061296e8782880161228e565b925050606085013567ffffffffffffffff81111561298f5761298e612128565b5b61299b878288016128f6565b91505092959194509250565b600080604083850312156129be576129bd612123565b5b60006129cc85828601612343565b92505060206129dd85828601612343565b9150509250929050565b7f4e487b7100000000000000000000000000000000000000000000000000000000600052602260045260246000fd5b60006002820490506001821680612a2e57607f821691505b60208210811415612a4257612a416129e7565b5b50919050565b7f4552433732313a20617070726f76616c20746f2063757272656e74206f776e6560008201527f7200000000000000000000000000000000000000000000000000000000000000602082015250565b6000612aa46021836121bd565b9150612aaf82612a48565b604082019050919050565b60006020820190508181036000830152612ad381612a97565b9050919050565b7f4552433732313a20617070726f76652063616c6c6572206973206e6f7420746f60008201527f6b656e206f776e6572206e6f7220617070726f76656420666f7220616c6c0000602082015250565b6000612b36603e836121bd565b9150612b4182612ada565b604082019050919050565b60006020820190508181036000830152612b6581612b29565b9050919050565b7f4552433732313a2063616c6c6572206973206e6f7420746f6b656e206f776e6560008201527f72206e6f7220617070726f766564000000000000000000000000000000000000602082015250565b6000612bc8602e836121bd565b9150612bd382612b6c565b604082019050919050565b60006020820190508181036000830152612bf781612bbb565b9050919050565b600081905092915050565b50565b6000612c19600083612bfe565b9150612c2482612c09565b600082019050919050565b6000612c3a82612c0c565b9150819050919050565b7f7769746864726177206661696c65640000000000000000000000000000000000600082015250565b6000612c7a600f836121bd565b9150612c8582612c44565b602082019050919050565b60006020820190508181036000830152612ca981612c6d565b9050919050565b7f4552433732313a20696e76616c696420746f6b656e2049440000000000000000600082015250565b6000612ce66018836121bd565b9150612cf182612cb0565b602082019050919050565b60006020820190508181036000830152612d1581612cd9565b9050919050565b7f4552433732313a2061646472657373207a65726f206973206e6f74206120766160008201527f6c6964206f776e65720000000000000000000000000000000000000000000000602082015250565b6000612d786029836121bd565b9150612d8382612d1c565b604082019050919050565b60006020820190508181036000830152612da781612d6b565b9050919050565b7f546f6b656e20646f6573206e6f74206578697374210000000000000000000000600082015250565b6000612de46015836121bd565b9150612def82612dae565b602082019050919050565b60006020820190508181036000830152612e1381612dd7565b9050919050565b600081905092915050565b60008190508160005260206000209050919050565b60008154612e4781612a16565b612e518186612e1a565b94506001821660008114612e6c5760018114612e7d57612eb0565b60ff19831686528186019350612eb0565b612e8685612e25565b60005b83811015612ea857815481890152600182019150602081019050612e89565b838801955050505b50505092915050565b6000612ec4826121b2565b612ece8185612e1a565b9350612ede8185602086016121ce565b80840191505092915050565b7f2e6a736f6e000000000000000000000000000000000000000000000000000000600082015250565b6000612f20600583612e1a565b9150612f2b82612eea565b600582019050919050565b6000612f428285612e3a565b9150612f4e8284612eb9565b9150612f5982612f13565b91508190509392505050565b7f4d696e74696e67206e6f7420656e61626c656400000000000000000000000000600082015250565b6000612f9b6013836121bd565b9150612fa682612f65565b602082019050919050565b60006020820190508181036000830152612fca81612f8e565b9050919050565b7f4e487b7100000000000000000000000000000000000000000000000000000000600052601160045260246000fd5b600061300b8261226d565b91506130168361226d565b9250827fffffffffffffffffffffffffffffffffffffffffffffffffffffffffffffffff0382111561304b5761304a612fd1565b5b828201905092915050565b7f657863656564206d61782077616c6c6574000000000000000000000000000000600082015250565b600061308c6011836121bd565b915061309782613056565b602082019050919050565b600060208201905081810360008301526130bb8161307f565b9050919050565b60006130cd8261226d565b91507fffffffffffffffffffffffffffffffffffffffffffffffffffffffffffffffff821415613100576130ff612fd1565b5b600182019050919050565b7f4f776e61626c653a206e6577206f776e657220697320746865207a65726f206160008201527f6464726573730000000000000000000000000000000000000000000000000000602082015250565b60006131676026836121bd565b91506131728261310b565b604082019050919050565b600060208201905081810360008301526131968161315a565b9050919050565b7f4f776e61626c653a2063616c6c6572206973206e6f7420746865206f776e6572600082015250565b60006131d36020836121bd565b91506131de8261319d565b602082019050919050565b60006020820190508181036000830152613202816131c6565b9050919050565b7f4552433732313a207472616e736665722066726f6d20696e636f72726563742060008201527f6f776e6572000000000000000000000000000000000000000000000000000000602082015250565b60006132656025836121bd565b915061327082613209565b604082019050919050565b6000602082019050818103600083015261329481613258565b9050919050565b7f4552433732313a207472616e7366657220746f20746865207a65726f2061646460008201527f7265737300000000000000000000000000000000000000000000000000000000602082015250565b60006132f76024836121bd565b91506133028261329b565b604082019050919050565b60006020820190508181036000830152613326816132ea565b9050919050565b60006133388261226d565b91506133438361226d565b92508282101561335657613355612fd1565b5b828203905092915050565b7f4552433732313a20617070726f766520746f2063616c6c657200000000000000600082015250565b60006133976019836121bd565b91506133a282613361565b602082019050919050565b600060208201905081810360008301526133c68161338a565b9050919050565b7f4552433732313a207472616e7366657220746f206e6f6e20455243373231526560008201527f63656976657220696d706c656d656e7465720000000000000000000000000000602082015250565b60006134296032836121bd565b9150613434826133cd565b604082019050919050565b600060208201905081810360008301526134588161341c565b9050919050565b7f4e487b7100000000000000000000000000000000000000000000000000000000600052601260045260246000fd5b60006134998261226d565b91506134a48361226d565b9250826134b4576134b361345f565b5b828204905092915050565b60006134ca8261226d565b91506134d58361226d565b9250826134e5576134e461345f565b5b828206905092915050565b7f4e487b7100000000000000000000000000000000000000000000000000000000600052603260045260246000fd5b600081519050919050565b600082825260208201905092915050565b60006135468261351f565b613550818561352a565b93506135608185602086016121ce565b61356981612201565b840191505092915050565b60006080820190506135896000830187612302565b6135966020830186612302565b6135a36040830185612398565b81810360608301526135b5818461353b565b905095945050505050565b6000815190506135cf81612159565b92915050565b6000602082840312156135eb576135ea612123565b5b60006135f9848285016135c0565b91505092915050565b7f4552433732313a206d696e7420746f20746865207a65726f2061646472657373600082015250565b60006136386020836121bd565b915061364382613602565b602082019050919050565b600060208201905081810360008301526136678161362b565b9050919050565b7f4552433732313a20746f6b656e20616c7265616479206d696e74656400000000600082015250565b60006136a4601c836121bd565b91506136af8261366e565b602082019050919050565b600060208201905081810360008301526136d381613697565b905091905056fea2646970667358221220b3786a35e16d1171688c0427c37ff20112d39f3ce87ab1b33d78c6add455936064736f6c63430008090033",
  "linkReferences": {},
  "deployedLinkReferences": {}
}